:100000000C942A000C9447000C9447000C94470071
:100010000C9447000C9447000C9447000C949119E1
:100020000C9447000C9447000C9447000C94470034
:100030000C9447000C9447000C9447000C94470024
:100040000C94360C0C9447000C9447000C94470019
:100050000C94470011241FBECFE5D8E0DEBFCDBF12
:1000600010E0A0E6B0E0ECEDFFE402C005900D92D8
:10007000A43AB107D9F716E0A4EAB0E001C01D9296
:10008000AF30B107E1F70E949F260C94EC270C9447
:100090000000EF92FF920F931F937B018C0120E0F1
:1000A00030E040E05FE40E94490388238CF0C801FF
:1000B000B70120E030E040E05FE40E94C1010E940F
:1000C000A9039B01AC01205030404040504806C07D
:1000D000C801B7010E94A9039B01AC01B901CA0183
:1000E0001F910F91FF90EF900895A0E0B0E0EBE733
:1000F000F0E00C949627DC012B01FA019C919230E0
:1001000008F439C1EB018881823008F433C194309E
:1001100069F4843009F02FC111969C91119789815F
:10012000981709F428C1AAE9B0E025C1843009F480
:1001300021C18230A9F4923009F01DC19A01AD01AC
:1001400088E0EA010990AE01E90109929E0181501F
:10015000C1F7E201898111969C918923818308C1AD
:10016000923009F407C112962D903C901397EB0141
:100170008A819B811496AD90BD90CD90DC901797AD
:10018000EC80FD800E811F819101281B390BB90184
:1001900037FF04C066277727621B730B6032710537
:1001A0000CF061C0121613066CF537014801062EDB
:1001B00004C096948794779467940A94D2F721E0C8
:1001C00030E040E050E004C0220F331F441F551FB1
:1001D0006A95D2F721503040404050402E213F21B7
:1001E00040235123211531054105510521F021E01E
:1001F00030E040E050E079018A01E628F72808293C
:1002000019293CC0232BD1F1260E371E350146019A
:10021000062E04C096948794779467940A94D2F734
:1002200021E030E040E050E004C0220F331F441FC3
:10023000551F6A95D2F721503040404050402A2146
:100240003B214C215D21211531054105510521F04E
:1002500021E030E040E050E059016A01A628B728CB
:10026000C828D9280BC0821593052CF01C01AA249C
:10027000BB24650103C0EE24FF24870111969C91E5
:10028000D20111968C91981709F445C0992339F041
:10029000A80197012A193B094C095D0906C0A6016E
:1002A00095012E193F09400B510B57FD08C01182D3
:1002B0003382228224833583468357831DC081E0A5
:1002C00081833382228288279927DC01821B930B4A
:1002D000A40BB50B84839583A683B7830DC0220F2F
:1002E000331F441F551F24833583468357838281E0
:1002F000938101979383828324813581468157813D
:10030000DA01C9010197A109B1098F5F9F4FAF4F72
:10031000BF4328F30BC0918333822282EA0CFB1C7B
:100320000C1D1D1DE482F5820683178383E0808304
:10033000248135814681578157FF1AC0C901AA27F8
:1003400097FDA095BA2F81709070A070B0705695EF
:10035000479537952795822B932BA42BB52B848318
:100360009583A683B7838281938101969383828349
:10037000DF0101C0D201CD01CDB7DEB7E2E10C94BF
:10038000B227A0E2B0E0E7ECF1E00C94A227698389
:100390007A838B839C832D833E834F835887E9E048
:1003A000EE2EF12CEC0EFD1ECE010196B7010E943F
:1003B000D2048E010F5E1F4FCE010596B8010E9438
:1003C000D2048A8991E089278A8BC701B801AE01DE
:1003D000475E5F4F0E9475000E94FD03A096E6E015
:1003E0000C94BE27A0E2B0E0E8EFF1E00C94A22765
:1003F00069837A838B839C832D833E834F835887C5
:10040000F9E0EF2EF12CEC0EFD1ECE010196B701A6
:100410000E94D2048E010F5E1F4FCE010596B801D7
:100420000E94D204C701B801AE01475E5F4F0E942F
:1004300075000E94FD03A096E6E00C94BE27A0E2A2
:10044000B0E0E5E2F2E00C94962769837A838B832F
:100450009C832D833E834F835887CE010196BE0136
:10046000675F7F4F0E94D204CE010596BE016F5E8A
:100470007F4F0E94D2049985923088F0898982301A
:10048000C8F0943019F4823051F404C0843029F457
:10049000923081F48AE990E0C6C0923049F420E0BD
:1004A0009A858A89981321E02A87CE010996BBC0D4
:1004B000823049F420E09A858A89981321E02A8BBA
:1004C000CE014196B0C02D843E844F8458886D88FB
:1004D0007E888F88988CEE24FF248701AA24BB2471
:1004E000650140E050E060E070E0E0E0F0E0C10174
:1004F00081709070892BE9F0E60CF71C081D191D1E
:100500009A01AB012A0D3B1D4C1D5D1D80E090E062
:10051000A0E0B0E0E614F7040805190520F481E036
:1005200090E0A0E0B0E0BA01A901480F591F6A1F8E
:100530007B1FAA0CBB1CCC1CDD1C97FE08C081E0F5
:1005400090E0A0E0B0E0A82AB92ACA2ADB2A3196B6
:10055000E032F10549F0660C771C881C991C569412
:10056000479437942794C3CFFA85EA892B893C892D
:100570008B859C85280F391F2E5F3F4F17C0CA01FE
:1005800081709070892B61F016950795F794E79428
:1005900080E090E0A0E0B0E8E82AF92A0A2B1B2BC3
:1005A00076956795579547952F5F3F4F77FDE7CF36
:1005B0000CC0440F551F661F771F17FD4160EE0CDE
:1005C000FF1C001F111F21503040403090E05907A0
:1005D00090E0690790E4790760F32B8F3C8FDB0193
:1005E000CA018F779070A070B07080349105A1051A
:1005F000B10561F447FD0AC0E114F10401051105DC
:1006000029F0405C5F4F6F4F7F4F40781A8EFE1786
:1006100011F081E08A8F4D8F5E8F6F8F78A383E01A
:10062000898FCE0149960E94FD03A096E2E10C94C9
:10063000B227A8E1B0E0EFE1F3E00C94A2276983D0
:100640007A838B839C832D833E834F83588789E0F5
:10065000E82EF12CEC0EFD1ECE010196B7010E9492
:10066000D2048E010F5E1F4FCE010596B8010E9485
:10067000D2048985823040F08989823028F0C70110
:10068000B8010E944A0501C08FEF6896E6E00C941D
:10069000BE27A8E1B0E0EFE4F3E00C94A227698361
:1006A0007A838B839C832D833E834F83588789E095
:1006B000E82EF12CEC0EFD1ECE010196B7010E9432
:1006C000D2048E010F5E1F4FCE010596B8010E9425
:1006D000D2048985823040F08989823028F0C701B0
:1006E000B8010E944A0501C08FEF6896E6E00C94BD
:1006F000BE27A8E1B0E0EFE7F3E00C94A2276983FE
:100700007A838B839C832D833E834F83588789E034
:10071000E82EF12CEC0EFD1ECE010196B7010E94D1
:10072000D2048E010F5E1F4FCE010596B8010E94C4
:10073000D2048985823040F08989823028F0C7014F
:10074000B8010E944A0501C081E06896E6E00C9479
:10075000BE27ACE0B0E0EFEAF3E00C94A627698393
:100760007A838B839C83CE010196BE016B5F7F4FA2
:100770000E94D2048D81823061F1823050F1843048
:1007800021F48E81882351F12EC02F81388537FDC9
:1007900020C06E812F3131051CF06623F9F023C093
:1007A0008EE190E0821B930B29853A854B855C8511
:1007B00004C056954795379527958A95D2F76623B5
:1007C000B1F050954095309521953F4F4F4F5F4F79
:1007D0000EC020E030E040E050E009C02FEF3FEFD6
:1007E0004FEF5FE704C020E030E040E050E8B9019F
:1007F000CA012C96E2E00C94C227DF92EF92FF929E
:100800000F931F93FC01E480F58006811781D1804E
:100810008081823048F480E090E0A0E1B0E0E82AF6
:10082000F92A0A2B1B2BA5C0843009F49FC0823003
:1008300021F4EE24FF24870105C0E114F104010531
:10084000110519F4E0E0F0E096C0628173819FEF3A
:10085000623879070CF05BC022E83FEF261B370BAC
:100860002A3131052CF020E030E040E050E02AC091
:10087000B801A701022E04C0769567955795479554
:100880000A94D2F781E090E0A0E0B0E004C0880FC5
:10089000991FAA1FBB1F2A95D2F70197A109B10979
:1008A0008E219F21A023B1230097A105B10521F03E
:1008B00081E090E0A0E0B0E09A01AB01282B392B59
:1008C0004A2B5B2BDA01C9018F779070A070B07052
:1008D00080349105A105B10539F427FF09C0205CDA
:1008E0003F4F4F4F5F4F04C0215C3F4F4F4F5F4F13
:1008F000E0E0F0E02030A0E03A07A0E04A07A0E402
:100900005A0710F0E1E0F0E079018A0127C0603871
:10091000710564F5FB01E158FF4FD801C7018F77DE
:100920009070A070B07080349105A105B10539F4C4
:10093000E7FE0DC080E490E0A0E0B0E004C08FE3EB
:1009400090E0A0E0B0E0E80EF91E0A1F1B1F17FFA1
:1009500005C016950795F794E794319687E01695AC
:100960000795F794E7948A95D1F705C0EE24FF2404
:100970008701EFEFF0E06E2F679566276795902F60
:100980009F77D794DD24D7948E2F8695492F462BB9
:10099000582F5D29B701CA011F910F91FF90EF9069
:1009A000DF900895FC01DB01408151812281622F9B
:1009B0006F7770E0221F2227221F9381892F880FD3
:1009C000822B282F30E0991F9927991F11969C930D
:1009D000119721153105A9F54115510561057105DD
:1009E00011F482E037C082E89FEF13969C938E93B8
:1009F00012979A01AB0167E0220F331F441F551F66
:100A00006A95D1F783E08C930DC0220F331F441FEA
:100A1000551F12968D919C911397019713969C9355
:100A20008E931297203080E0380780E0480780E4FA
:100A3000580758F314962D933D934D935C93179755
:100A400008952F3F310579F4411551056105710570
:100A500019F484E08C93089564FF03C081E08C93C3
:100A600012C01C9210C02F57304013963C932E9307
:100A7000129783E08C9387E0440F551F661F771F02
:100A80008A95D1F7706414964D935D936D937C9322
:100A9000179708951F93DC01FB019C91923008F495
:100AA00047C08081823008F443C0943051F41196DD
:100AB0001C91843099F58181682F70E0611B710968
:100AC0003FC0843021F0923031F48230B9F181811D
:100AD000882389F12DC011961C9111978230F1F075
:100AE00081811817D9F412962D913C911397828128
:100AF00093818217930794F028173907BCF0149656
:100B00008D919D910D90BC91A02D248135814681C0
:100B10005781281739074A075B0718F4112341F05A
:100B20000AC082179307A407B50740F4112319F0F0
:100B300061E070E005C06FEF7FEF02C060E070E041
:100B4000CB011F910895DF93CF930F92CDB7DEB7FE
:100B5000198285E00E94E10B20910B0630910C0672
:100B600084E690E0AC01249FC001259F900D349F46
:100B7000900D11242CEB32E0B9010E946027CB01CB
:100B800080930706809107068A30E8F480E069E0E8
:100B90000E94A31180910706882F90E0A0E0B0E0AA
:100BA000BC01CD010E94D41180E06AE00E94A31133
:100BB00085E20E94961180E06BE00E94A31180E222
:100BC0000E94961119C0809107068436A8F480E02F
:100BD00069E00E94A31180910706882F90E0A0E0B1
:100BE000B0E0BC01CD010E94D41180E06BE00E9416
:100BF000A31185E20E94961180910706806889837F
:100C000089810E94BC0780E064E040E00E942A09DC
:100C100080910D0690910E0660E070E040E050E09B
:100C200020E00E945C1A0F90CF91DF910895DF932E
:100C3000CF930F92CDB7DEB780910D0690910E063F
:100C400060E070E04AE050E020E00E94471B8983AA
:100C50008981813069F480E064E041E00E942A09E2
:100C60008BE096E00E94FA0B83EA95E00E94200C4C
:100C700088EB9BE00E94F81FDFCFDF93CF930F92AA
:100C8000CDB7DEB780910D0690910E0660E070E062
:100C90004AE050E020E00E94471B8983898181302F
:100CA00069F480E066E041E00E942A0989E096E06C
:100CB0000E94FA0B83E696E00E94200C88EB9BE0F2
:100CC0000E94F81FDFCFDF93CF930F92CDB7DEB72F
:100CD000198287E00E94E10B2091090630910A06F3
:100CE00084E690E0AC01249FC001259F900D349FC5
:100CF000900D11242CEB32E0B9010E946027CB014A
:100D000080930806809108068A30E8F481E06CE060
:100D10000E94A31180910806882F90E0A0E0B0E027
:100D2000BC01CD010E94D41181E06DE00E94A311AD
:100D300085E20E94961181E06EE00E94A31180E29C
:100D40000E94961119C0809108068436A8F481E0AB
:100D50006CE00E94A31180910806882F90E0A0E02B
:100D6000B0E0BC01CD010E94D41181E06EE00E9490
:100D7000A31185E20E949611809108068F778983DE
:100D800089810E94BC0780E066E040E00E942A0959
:100D900080910D0690910E0660E070E040E050E01A
:100DA00020E00E945C1A0F90CF91DF910895DF93AD
:100DB000CF930F92CDB7DEB780910D0690910E06BE
:100DC00060E070E04AE050E020E00E94471B898329
:100DD0008981813079F480910706863430F082E091
:100DE00067E041E00E942A0905C082E067E040E038
:100DF0000E942A0980910D0690910E0660E070E035
:100E000040E050E020E00E945C1A80EA9FE00E94EF
:100E1000F81FD2CFDF93CF930F92CDB7DEB780917B
:100E20000D0690910E0660E070E04AE050E020E090
:100E30000E94471B89838981813079F4809108065B
:100E4000803130F482E066E041E00E942A0905C06A
:100E500082E066E040E00E942A0980910D069091B0
:100E60000E0660E070E040E050E020E00E945C1A76
:100E700080EA9FE00E94F81FD2CF0F931F93DF9369
:100E8000CF9300D00F92CDB7DEB79B838A8300E467
:100E900010E08A819B81CC01A0E0B0E0880F991F0F
:100EA000AA1FBB1F880F991FAA1FBB1F880F991F5E
:100EB000AA1FBB1F880F991FAA1FBB1F9C01AD0152
:100EC00080E094E2A4EFB0E0BC01CD010E94742761
:100ED000DA01C9010197A109B109892F9A2FAB2F16
:100EE000BB27F801808309E210E08A819B81CC0155
:100EF000A0E0B0E0880F991FAA1FBB1F880F991FA1
:100F0000AA1FBB1F880F991FAA1FBB1F880F991FFD
:100F1000AA1FBB1F9C01AD0180E094E2A4EFB0E0EA
:100F2000BC01CD010E947427DA01C9018150F8018A
:100F30008083AAE2B0E0EAE2F0E0808180618C93F5
:100F4000AAE2B0E0EAE2F0E0808188608C938981D7
:100F500080688983898184608983898182608983AB
:100F6000E0E4F0E0898180830F900F900F90CF91A3
:100F7000DF911F910F910895DF93CF930F92CDB71B
:100F8000DEB78983EBE2F0E08081829586958770F9
:100F9000882F90E0817090700097A1F3ECE2F0E070
:100FA000898180830F90CF91DF910895DF93CF9354
:100FB000CDB7DEB7EBE2F0E080818823DCF7ECE22E
:100FC000F0E08081CF91DF910895DF93CF9300D03F
:100FD0000F92CDB7DEB79B838A8319820EC08981B9
:100FE000282F30E08A819B81FC01E20FF31F808172
:100FF0000E94BC0789818F5F89838981282F30E017
:101000008A819B81FC01E20FF31F8081882339F7DD
:101010000F900F900F90CF91DF910895DF93CF93B2
:10102000CDB7DEB7AFE5B0E0EFE5F0E080818068F6
:101030008C93CF91DF910895DF93CF93CDB7DEB737
:10104000AFE5B0E0EFE5F0E080818F778C93CF9152
:10105000DF910895DF93CF93CDB7DEB727970FB613
:10106000F894DEBF0FBECDBF89836A834B838B812B
:10107000813009F06FC08981282F30E03F832E83B3
:101080008E819F818130910549F12E813F812230EF
:1010900031052CF48E819F81009761F0D2C02E81A2
:1010A0003F812230310571F18E819F81833091051E
:1010B000E9F1C7C0AAE3B0E0EAE3F0E08081482F9D
:1010C0008A81282F30E081E090E0022E02C0880F54
:1010D000991F0A94E2F7842B8C93B3C0A7E3B0E086
:1010E000E7E3F0E08081482F8A81282F30E081E01B
:1010F00090E0022E02C0880F991F0A94E2F7842B19
:101100008C939FC0A4E3B0E0E4E3F0E08081482F3B
:101110008A81282F30E081E090E0022E02C0880F03
:10112000991F0A94E2F7842B8C938BC0A1E3B0E063
:10113000E1E3F0E08081482F8A81282F30E081E0D0
:1011400090E0022E02C0880F991F0A94E2F7842BC8
:101150008C9377C08B81882309F073C08981282FF5
:1011600030E03D832C838C819D818130910559F144
:101170002C813D81223031052CF48C819D8100979A
:1011800069F05FC02C813D812230310589F18C816D
:101190009D818330910509F440C053C0AAE3B0E0BB
:1011A000EAE3F0E08081482F8A81282F30E081E057
:1011B00090E0022E02C0880F991F0A94E2F78095F2
:1011C00084238C933EC0A7E3B0E0E7E3F0E08081A6
:1011D000482F8A81282F30E081E090E0022E02C063
:1011E000880F991F0A94E2F7809584238C9329C075
:1011F000A4E3B0E0E4E3F0E08081482F8A81282F67
:1012000030E081E090E0022E02C0880F991F0A941E
:10121000E2F7809584238C9314C0A1E3B0E0E1E36E
:10122000F0E08081482F8A81282F30E081E090E033
:10123000022E02C0880F991F0A94E2F7809584233A
:101240008C9327960FB6F894DEBF0FBECDBFCF911B
:10125000DF910895DF93CF93CDB7DEB727970FB611
:10126000F894DEBF0FBECDBF89836A834B838B8129
:10127000813009F06FC08981282F30E03F832E83B1
:101280008E819F818130910549F12E813F812230ED
:1012900031052CF48E819F81009761F0D2C02E81A0
:1012A0003F812230310571F18E819F81833091051C
:1012B000E9F1C7C0ABE3B0E0EBE3F0E08081482F99
:1012C0008A81282F30E081E090E0022E02C0880F52
:1012D000991F0A94E2F7842B8C93B3C0A8E3B0E083
:1012E000E8E3F0E08081482F8A81282F30E081E018
:1012F00090E0022E02C0880F991F0A94E2F7842B17
:101300008C939FC0A5E3B0E0E5E3F0E08081482F37
:101310008A81282F30E081E090E0022E02C0880F01
:10132000991F0A94E2F7842B8C938BC0A2E3B0E060
:10133000E2E3F0E08081482F8A81282F30E081E0CD
:1013400090E0022E02C0880F991F0A94E2F7842BC6
:101350008C9377C08B81882309F073C08981282FF3
:1013600030E03D832C838C819D818130910559F142
:101370002C813D81223031052CF48C819D81009798
:1013800069F05FC02C813D812230310589F18C816B
:101390009D818330910509F440C053C0ABE3B0E0B8
:1013A000EBE3F0E08081482F8A81282F30E081E054
:1013B00090E0022E02C0880F991F0A94E2F78095F0
:1013C00084238C933EC0A8E3B0E0E8E3F0E08081A2
:1013D000482F8A81282F30E081E090E0022E02C061
:1013E000880F991F0A94E2F7809584238C9329C073
:1013F000A5E3B0E0E5E3F0E08081482F8A81282F63
:1014000030E081E090E0022E02C0880F991F0A941C
:10141000E2F7809584238C9314C0A2E3B0E0E2E36A
:10142000F0E08081482F8A81282F30E081E090E031
:10143000022E02C0880F991F0A94E2F78095842338
:101440008C9327960FB6F894DEBF0FBECDBFCF9119
:10145000DF910895DF93CF9300D000D0CDB7DEB7F2
:1014600089836A838981282F30E03C832B838B8199
:101470009C8181309105D1F02B813C812230310556
:101480002CF48B819C81009761F01EC02B813C81E4
:101490002230310581F08B819C818330910581F070
:1014A00013C0EAE3F0E08A8180830EC0E7E3F0E056
:1014B0008A81808309C0E4E3F0E08A81808304C0EC
:1014C000E1E3F0E08A8180830F900F900F900F90FE
:1014D000CF91DF910895DF93CF9300D000D0CDB7A7
:1014E000DEB789836A838981282F30E03C832B8390
:1014F0008B819C8181309105D1F02B813C81223000
:1015000031052CF48B819C81009761F01EC02B81EA
:101510003C812230310581F08B819C8183309105A3
:1015200081F013C0EBE3F0E08A8180830EC0E8E332
:10153000F0E08A81808309C0E5E3F0E08A8180835E
:1015400004C0E2E3F0E08A8180830F900F900F9057
:101550000F90CF91DF910895DF93CF9300D000D00B
:10156000CDB7DEB789836A838981282F30E03C8339
:101570002B838B819C818130910549F12B813C81AA
:10158000223031052CF48B819C81009761F05AC088
:101590002B813C812230310571F18B819C8183301C
:1015A0009105E9F14FC0ABE3B0E0EBE3F0E08081FF
:1015B000482F8A81282F30E081E090E0022E02C07F
:1015C000880F991F0A94E2F784278C933BC0A8E305
:1015D000B0E0E8E3F0E08081482F8A81282F30E0F6
:1015E00081E090E0022E02C0880F991F0A94E2F772
:1015F00084278C9327C0A5E3B0E0E5E3F0E0808189
:10160000482F8A81282F30E081E090E0022E02C02E
:10161000880F991F0A94E2F784278C9313C0A2E3E2
:10162000B0E0E2E3F0E08081482F8A81282F30E0AB
:1016300081E090E0022E02C0880F991F0A94E2F721
:1016400084278C930F900F900F900F90CF91DF9184
:101650000895DF93CF9300D000D00F92CDB7DEB7BF
:101660008A836B838A81282F30E03D832C834C81D1
:101670005D814130510541F18C819D818230910520
:1016800034F42C813D812115310561F052C04C812B
:101690005D814230510551F18C819D8183309105EE
:1016A000B9F147C0E9E3F0E08081282F30E08B8179
:1016B000882F90E0A90102C0559547958A95E2F7D9
:1016C000CA018170898335C0E6E3F0E08081282F6C
:1016D00030E08B81882F90E0A90102C05595479595
:1016E0008A95E2F7CA018170898323C0E3E3F0E0C1
:1016F0008081282F30E08B81882F90E0A90102C0E3
:10170000559547958A95E2F7CA018170898311C082
:10171000E0E3F0E08081282F30E08B81882F90E09B
:10172000A90102C0559547958A95E2F7CA018170D3
:10173000898389810F900F900F900F900F90CF9118
:10174000DF910895DF93CF93CDB7DEB7A7E2B0E086
:10175000E7E2F0E080818F778C93A7E2B0E0E7E2E8
:10176000F0E0808180648C93A7E2B0E0E7E2F0E0F3
:1017700080818F7D8C93A6E2B0E0E6E2F0E080818C
:1017800081608C93A6E2B0E0E6E2F0E080818260C6
:101790008C93A6E2B0E0E6E2F0E0808184608C9376
:1017A000A6E2B0E0E6E2F0E0808188608C93A6E2F9
:1017B000B0E0E6E2F0E0808180688C93CF91DF9129
:1017C0000895DF93CF930F92CDB7DEB78983A7E259
:1017D000B0E0E7E2F0E08081807E8C93A7E2B0E0A9
:1017E000E7E2F0E090818981892B8C930F90CF9173
:1017F000DF910895DF93CF9300D0CDB7DEB79A8302
:101800008983A6E2B0E0E6E2F0E0808180648C9318
:10181000E4E2F0E080819181E981FA819183808323
:101820000F900F90CF91DF910895DF93CF93CDB7B5
:10183000DEB7E4E2F0E011821082CF91DF910895EB
:10184000DF93CF9300D0CDB7DEB79A8389838981A8
:101850009A81009731F089819A819093A5008093B5
:10186000A4000F900F90CF91DF9108951F920F92D7
:101870000FB60F9211242F933F934F935F936F9363
:101880007F938F939F93AF93BF93EF93FF93DF93D8
:10189000CF93CDB7DEB7E091A400F091A5000995F4
:1018A000CF91DF91FF91EF91BF91AF919F918F9178
:1018B0007F916F915F914F913F912F910F900FBE4C
:1018C0000F901F901895DF93CF93CDB7DEB7E997B0
:1018D0000FB6F894DEBF0FBECDBF89AF80E062E0E7
:1018E00040E00E942A0989AD982F991F9927991FD6
:1018F00081E064E0492F0E942A0989AD829586958E
:1019000086958370982F917081E062E0492F0E9444
:101910002A0989AD829586958770982F917081E00C
:1019200061E0492F0E942A0989AD82958F70982F16
:10193000917081E060E0492F0E942A0980E062E016
:1019400041E00E942A0980E090E0A0E8BFE38DAB6F
:101950009EABAFABB8AF6DA97EA98FA998AD20E0C3
:1019600030E04AE755E40E941F02DC01CB0189AB5D
:101970009AABABABBCAB69A97AA98BA99CA920E0B7
:1019800030E040E85FE30E94790388232CF481E093
:1019900090E098AB8FA73FC069A97AA98BA99CA9B1
:1019A00020E03FEF4FE757E40E94190318164CF56B
:1019B0006DA97EA98FA998AD20E030E040E251E406
:1019C0000E941F02DC01CB01BC01CD010E94490035
:1019D000DC01CB0198AB8FA70FC080E991E09EA7F7
:1019E0008DA78DA59EA50197F1F79EA78DA78FA521
:1019F00098A9019798AB8FA78FA598A9009769F729
:101A000014C069A97AA98BA99CA90E944900DC018C
:101A1000CB0198AB8FA78FA598A99CA78BA78BA567
:101A20009CA50197F1F79CA78BA780E062E040E0BE
:101A30000E942A0980E090E0A0EFB1E48FA398A76C
:101A4000A9A7BAA76FA178A589A59AA520E030E03B
:101A50004AE755E40E941F02DC01CB018BA39CA343
:101A6000ADA3BEA36BA17CA18DA19EA120E030E01F
:101A700040E85FE30E94790388232CF481E090E042
:101A80009AA389A33FC06BA17CA18DA19EA120E058
:101A90003FEF4FE757E40E94190318164CF56FA16A
:101AA00078A589A59AA520E030E040E251E40E94A3
:101AB0001F02DC01CB01BC01CD010E944900DC0109
:101AC000CB019AA389A30FC080E991E098A38F8FDF
:101AD0008F8D98A10197F1F798A38F8F89A19AA173
:101AE00001979AA389A389A19AA1009769F714C0C5
:101AF0006BA17CA18DA19EA10E944900DC01CB01BC
:101B00009AA389A389A19AA19E8F8D8F8D8D9E8D79
:101B10000197F1F79E8F8D8F89AD86958695869575
:101B2000982F917081E064E0492F0E942A0989ADC5
:101B300086958695982F917081E062E0492F0E94EA
:101B40002A0989AD8695982F917081E061E0492F2F
:101B50000E942A0989AD982F917081E060E0492F99
:101B60000E942A0980E062E041E00E942A0980E0A8
:101B700090E0A0E8BFE3898F9A8FAB8FBC8F698D0F
:101B80007A8D8B8D9C8D20E030E04AE755E40E94F1
:101B90001F02DC01CB018D8B9E8BAF8BB88F6D89C3
:101BA0007E898F89988D20E030E040E85FE30E94D5
:101BB000790388232CF481E090E09C8B8B8B3FC0D1
:101BC0006D897E898F89988D20E03FEF4FE757E43C
:101BD0000E94190318164CF5698D7A8D8B8D9C8D9A
:101BE00020E030E040E251E40E941F02DC01CB0122
:101BF000BC01CD010E944900DC01CB019C8B8B8B89
:101C00000FC080E991E09A8B898B89899A89019725
:101C1000F1F79A8B898B8B899C8901979C8B8B8B95
:101C20008B899C89009769F714C06D897E898F899B
:101C3000988D0E944900DC01CB019C8B8B8B8B899A
:101C40009C89988B8F878F8598890197F1F7988B5E
:101C50008F8780E062E040E00E942A0980E090E007
:101C6000A0EFB1E48B879C87AD87BE876B857C85B1
:101C70008D859E8520E030E04AE755E40E941F02F2
:101C8000DC01CB018F839887A987BA876F8178851C
:101C900089859A8520E030E040E85FE30E9479037F
:101CA00088232CF481E090E09E838D833FC06F8178
:101CB000788589859A8520E03FEF4FE757E40E94B9
:101CC000190318164CF56B857C858D859E8520E063
:101CD00030E040E251E40E941F02DC01CB01BC0174
:101CE000CD010E944900DC01CB019E838D830FC092
:101CF00080E991E09C838B838B819C810197F1F734
:101D00009C838B838D819E8101979E838D838D81A2
:101D10009E81009769F714C06F81788589859A85BF
:101D20000E944900DC01CB019E838D838D819E81C1
:101D30009A83898389819A810197F1F79A838983AC
:101D4000E9960FB6F894DEBF0FBECDBFCF91DF91FD
:101D500008950F931F93DF93CF93CDB7DEB7C6548B
:101D6000D0400FB6F894DEBF0FBECDBFFE01ED5BD5
:101D7000FF4F80E090E0A0EFB1E480839183A283E5
:101D8000B3838E01015C1F4FFE01ED5BFF4F60814D
:101D900071818281938120E030E04AE755E40E941E
:101DA0001F02DC01CB01F80180839183A283B383FE
:101DB000FE01FF96608171818281938120E030E095
:101DC00040E85FE30E94790388232CF481E090E0EF
:101DD0009EAF8DAF46C0FE01FF966081718182810A
:101DE000938120E03FEF4FE757E40E941903181654
:101DF00064F5FE01ED5BFF4F60817181828193810B
:101E000020E030E040E251E40E941F02DC01CB01FF
:101E1000BC01CD010E944900DC01CB019EAF8DAF1A
:101E20000FC080E991E09CAF8BAF8BAD9CAD01976B
:101E3000F1F79CAF8BAF8DAD9EAD01979EAF8DAF8F
:101E40008DAD9EAD009769F716C0FE01FF966081CB
:101E50007181828193810E944900DC01CB019EAF98
:101E60008DAF8DAD9EAD9AAF89AF89AD9AAD01971B
:101E7000F1F79AAF89AF80E063E041E00E942A0861
:101E800080E062E041E00E942A0881E060E041E0F9
:101E90000E942A0881E061E041E00E942A0881E076
:101EA00062E041E00E942A0881E064E041E00E9493
:101EB0002A0882E00E944E1180E090E0A0E0B0E4A9
:101EC0008DAB9EABAFABB8AF6DA97EA98FA998AD16
:101ED00020E030E04AE755E40E941F02DC01CB011C
:101EE00089AB9AABABABBCAB69A97AA98BA99CA90E
:101EF00020E030E040E85FE30E94790388232CF47F
:101F000081E090E098AB8FA73FC069A97AA98BA91F
:101F10009CA920E03FEF4FE757E40E9419031816F1
:101F20004CF56DA97EA98FA998AD20E030E040E284
:101F300051E40E941F02DC01CB01BC01CD010E94D3
:101F40004900DC01CB0198AB8FA70FC080E991E07D
:101F50009EA78DA78DA59EA50197F1F79EA78DA79A
:101F60008FA598A9019798AB8FA78FA598A90097DF
:101F700069F714C069A97AA98BA99CA90E94490094
:101F8000DC01CB0198AB8FA78FA598A99CA78BA745
:101F90008BA59CA50197F1F79CA78BA78CE20E94CB
:101FA0004E1180E090E0A0E0B0E48FA398A7A9A72D
:101FB000BAA76FA178A589A59AA520E030E04AE7E5
:101FC00055E40E941F02DC01CB018BA39CA3ADA3AF
:101FD000BEA36BA17CA18DA19EA120E030E040E8D2
:101FE0005FE30E94790388232CF481E090E09AA3B8
:101FF00089A33FC06BA17CA18DA19EA120E03FEFF2
:102000004FE757E40E94190318164CF56FA178A505
:1020100089A59AA520E030E040E251E40E941F0229
:10202000DC01CB01BC01CD010E944900DC01CB01E8
:102030009AA389A30FC080E991E098A38F8F8F8D19
:1020400098A10197F1F798A38F8F89A19AA1019781
:102050009AA389A389A19AA1009769F714C06BA1DB
:102060007CA18DA19EA10E944900DC01CB019AA315
:1020700089A389A19AA19E8F8D8F8D8D9E8D0197A9
:10208000F1F79E8F8D8F8CE00E944E1180E090E0E2
:10209000A0E0B0E4898F9A8FAB8FBC8F698D7A8D69
:1020A0008B8D9C8D20E030E04AE755E40E941F02B2
:1020B000DC01CB018D8B9E8BAF8BB88F6D897E89B8
:1020C0008F89988D20E030E040E85FE30E9479033B
:1020D00088232CF481E090E09C8B8B8B3FC06D8932
:1020E0007E898F89988D20E03FEF4FE757E40E946B
:1020F000190318164CF5698D7A8D8B8D9C8D20E017
:1021000030E040E251E40E941F02DC01CB01BC013F
:10211000CD010E944900DC01CB019C8B8B8B0FC051
:1021200080E991E09A8B898B89899A890197F1F7E7
:102130009A8B898B8B899C8901979C8B8B8B8B8944
:102140009C89009769F714C06D897E898F89988D65
:102150000E944900DC01CB019C8B8B8B8B899C8975
:10216000988B8F878F8598890197F1F7988B8F8748
:1021700081E00E944E1180E090E0A0E0B0E48B8707
:102180009C87AD87BE876B857C858D859E8520E08D
:1021900030E04AE755E40E941F02DC01CB018F8347
:1021A0009887A987BA876F81788589859A8520E085
:1021B00030E040E85FE30E94790388232CF481E05B
:1021C00090E09E838D833FC06F81788589859A8555
:1021D00020E03FEF4FE757E40E94190318164CF533
:1021E0006B857C858D859E8520E030E040E251E462
:1021F0000E941F02DC01CB01BC01CD010E944900FD
:10220000DC01CB019E838D830FC080E991E09C832C
:102210008B838B819C810197F1F79C838B838D81CC
:102220009E8101979E838D838D819E81009769F7A2
:1022300014C06F81788589859A850E944900DC01E8
:10224000CB019E838D838D819E819A838983898131
:102250009A810197F1F79A83898386E00E944E1153
:10226000CA5BDF4F0FB6F894DEBF0FBECDBFCF9174
:10227000DF911F910F910895DF93CF930F92CDB708
:10228000DEB7898380E063E041E00E942A0989810A
:102290000E94630C0F90CF91DF910895DF93CF934D
:1022A0000F92CDB7DEB7898380E063E040E00E9403
:1022B0002A0989810E94630C0F90CF91DF910895C4
:1022C000DF93CF9300D000D000D0CDB7DEB79E8390
:1022D0008D8319821A821B821C8215C029813A8142
:1022E0008D819E81FC01E20FF31F80810E943C11D1
:1022F00089819A81AB81BC810196A11DB11D898321
:102300009A83AB83BC8329813A818D819E81FC01B4
:10231000E20FF31F8081882309F726960FB6F89401
:10232000DEBF0FBECDBFCF91DF910895DF93CF9376
:102330000F92CDB7DEB7898389810E943C110F903F
:10234000CF91DF910895DF93CF9300D000D0CDB728
:10235000DEB789836A838981282F30E03C832B8311
:102360008B819C81009731F02B813C81213031059C
:1023700031F009C08A8180680E944E1104C08A81B0
:10238000806C0E944E110F900F900F900F90CF9184
:10239000DF910895DF93CF93CDB7DEB781E00E9440
:1023A0004E11CF91DF9108950F931F93DF93CF9339
:1023B000CDB7DEB763970FB6F894DEBF0FBECDBFC3
:1023C000688B798B8A8B9B8B88899989AA89BB8931
:1023D0008A839B83AC83BD8319828981082F10E097
:1023E0008A819B81AC81BD812AE030E040E050E0F1
:1023F000BC01CD010E947427DC01CB01282F205D98
:10240000CE010696FC01E00FF11F20838A819B819B
:10241000AC81BD812AE030E040E050E0BC01CD015C
:102420000E947427DA01C9018A839B83AC83BD8330
:1024300089818F5F89838A819B81AC81BD8100976F
:10244000A105B10551F611C08981882F90E09C014A
:1024500021503040CE010696FC01E20FF31F80812F
:102460000E943C118981815089838981882361F789
:1024700063960FB6F894DEBF0FBECDBFCF91DF914C
:102480001F910F910895DF93CF93CDB7DEB72797B4
:102490000FB6F894DEBF0FBECDBF9D838C836E83D5
:1024A0004F838AE190E00E941B159A83898389817A
:1024B0009A81009709F46FC08091A6009091A700BF
:1024C000009741F489819A819093A7008093A60098
:1024D0000E94AA148E81823010F081E08E83E981FF
:1024E000FA81118E108EE981FA818E81868BE981C5
:1024F000FA818F81878BE981FA818C819D8191831B
:10250000808389819A8102960E94B11589819A817E
:102510000C960E94B115E981FA8189819A8191878F
:102520008087E981FA8189819A81938B828B8E8160
:10253000282F30E086E090E0821B930BE981FA813E
:1025400095878487E981FA8196898091A800891707
:1025500028F4E981FA8186898093A800E981FA81CB
:102560008689282F30E0C901880F991F880F991F8D
:10257000880F991F820F931FAC0141555F4F8981CE
:102580009A819C012E5F3F4FCA01B9010E94C1157B
:1025900081E08B8302C08FEF8B838B8127960FB6F0
:1025A000F894DEBF0FBECDBFCF91DF910895DF93CA
:1025B000CF9300D000D000D0CDB7DEB79C838B8303
:1025C0007E836D832091A9003091AA008B819C812C
:1025D000820F931F9A8389838091A6009091A70010
:1025E00002960E947916E091A600F091A7008981D9
:1025F0009A81938382832091A9003091AA008981D6
:102600009A818217930770F48091D5009091D6003B
:102610002091A6003091A7002E5F3F4FB9010E9484
:102620000D160DC08091D3009091D4002091A6008A
:102630003091A7002E5F3F4FB9010E940D168D818A
:102640009E81009761F08091A6009091A7009C0167
:10265000245F3F4F8D819E81B9010E940D16269601
:102660000FB6F894DEBF0FBECDBFCF91DF910895B6
:10267000DF93CF9300D0CDB7DEB73AC0F894E091A6
:10268000DC00F091DD00868197819A8389838981BE
:102690009A810C960E947916789489819A81029683
:1026A0000E947916E981FA8196898091A80089179C
:1026B00028F4E981FA8186898093A800E981FA816A
:1026C0008689282F30E0C901880F991F880F991F2C
:1026D000880F991F820F931FAC0141555F4F89816D
:1026E0009A819C012E5F3F4FCA01B9010E94C1151A
:1026F0008091D700882309F0C1CF0F900F90CF9120
:10270000DF910895DF93CF9300D000D0CDB7DEB72F
:102710000E9465222091AB003091AC00821B930B8C
:102720009093AE008093AD0085C08091A9009091F8
:10273000AA0001969093AA008093A9008091AD0011
:102740009091AE0001979093AE008093AD00809180
:10275000A9009091AA00009709F064C08091D3006D
:102760009091D4009A8389838091D5009091D6006E
:102770009093D4008093D30089819A819093D6005E
:102780008093D5004FC0E091D300F091D400058034
:10279000F681E02D868197819C838B83EB81FC8180
:1027A000228133818091A9009091AA00821793071A
:1027B00008F440C0F8948B819C8102960E9479169F
:1027C000EB81FC8184899589009729F08B819C811C
:1027D0000C960E9479167894EB81FC819689809101
:1027E000A800891728F4EB81FC8186898093A800D2
:1027F000EB81FC818689282F30E0C901880F991F61
:10280000880F991F880F991F820F931FAC014155A4
:102810005F4F8B819C819C012E5F3F4FCA01B901A4
:102820000E94C115E091D300F091D40080818823EB
:1028300009F0A9CF8091AD009091AE00009709F00A
:1028400074CF8091A9009091AA009093AC008093DE
:10285000AB000F900F900F900F90CF91DF910895E4
:10286000DF93CF9300D0CDB7DEB70E9438130E941C
:1028700082130AC08091A800882309F466C0809161
:10288000A80081508093A8008091A800282F30E0F4
:10289000C901880F991F880F991F880F991F820FF0
:1028A000931FFC01E155FF4F8081882319F380912C
:1028B000A800282F30E0C901880F991F880F991FA1
:1028C000880F991F820F931F81559F4F9A83898389
:1028D000E981FA810180F281E02D82819381E98191
:1028E000FA8192838183E981FA8121813281898110
:1028F0009A8103962817390759F4E981FA810180F2
:10290000F281E02D82819381E981FA819283818332
:10291000E981FA810180F281E02D8681978190938F
:10292000A7008093A600E091A600F091A700408147
:1029300051818091A6009091A700E091A600F091AE
:10294000A7002789622FFA0109950F900F90CF9168
:10295000DF910895DF93CF930F92CDB7DEB7198241
:1029600013C08981282F30E0C901880F991F880F73
:10297000991F880F991F820F931F81559F4F0E94A7
:10298000871589818F5F89838981823050F381EC3B
:1029900090E00E9487158AEC90E00E94871587EDF1
:1029A00090E00E94871581EC90E09093D400809392
:1029B000D3008AEC90E09093D6008093D5000F90DE
:1029C000CF91DF910895DF93CF9300D000D00F9285
:1029D000CDB7DEB79D838C83EC81FD810580F681C8
:1029E000E02D868197819B838A838A819B810C96C7
:1029F0000E9479168A819B819C01245F3F4F87ED5D
:102A000090E0B9010E94C115EA81FB819689E091AD
:102A1000A600F091A7008689981718F081E08983B5
:102A200001C0198289810F900F900F900F900F9025
:102A3000CF91DF910895DF93CF9300D000D0CDB731
:102A4000DEB79C838B831A8219820E94CF218091EA
:102A5000E0009091E1002B813C81820F931F24E0E4
:102A6000803B920718F52091E0003091E1008B81C6
:102A70009C81280F391F8091E0009091E10082171E
:102A80009307A0F48091E0009091E1008E519F4F58
:102A90009A8389832091E0003091E1008B819C81B1
:102AA000820F931F9093E1008093E0000E94DB214E
:102AB00089819A810F900F900F900F90CF91DF91A5
:102AC0000895DF93CF9300D0CDB7DEB79A83898383
:102AD0000F900F90CF91DF910895DF93CF93CDB7F3
:102AE000DEB71092E1001092E000CF91DF910895DF
:102AF000DF93CF93CDB7DEB72091E0003091E100B6
:102B000080EB94E0821B930BCF91DF910895DF93CC
:102B1000CF9300D0CDB7DEB79A83898389819A811C
:102B20000396E981FA8192838183E981FA818FEFAB
:102B30009FEF9483838389819A810396E981FA8147
:102B40009683858389819A810396E981FA819087AA
:102B50008783E981FA8110820F900F90CF91DF91E6
:102B60000895DF93CF9300D0CDB7DEB79A838983E2
:102B7000E981FA81118610860F900F90CF91DF9135
:102B80000895DF93CF9300D000D000D0CDB7DEB74B
:102B90009C838B837E836D83EB81FC818181928119
:102BA0009A838983E981FA8182819381ED81FE8113
:102BB00093838283EB81FC8181819281ED81FE810F
:102BC00095838483E981FA810280F381E02D8D81F0
:102BD0009E81958384838D819E81E981FA8193838F
:102BE00082838D819E81EB81FC8192838183ED8143
:102BF000FE818B819C8191878087EB81FC81808124
:102C00008F5FEB81FC81808326960FB6F894DEBF40
:102C10000FBECDBFCF91DF910895DF93CF93CDB796
:102C2000DEB728970FB6F894DEBF0FBECDBF9E83E8
:102C30008D8378876F83EF81F885808191819A8376
:102C4000898389819A812FEF8F3F920739F4ED8133
:102C5000FE81878190859C838B8318C08D819E81A6
:102C600003969C838B8306C0EB81FC8182819381D8
:102C70009C838B83EB81FC810280F381E02D20819A
:102C8000318189819A818217930770F7EB81FC81EA
:102C900082819381EF81F88593838283EF81F88528
:102CA0000280F381E02D8F81988595838483EF8165
:102CB000F8858B819C81958384838F819885EB81B6
:102CC000FC8193838283EF81F8858D819E8191873A
:102CD0008087ED81FE8180818F5FED81FE81808321
:102CE00028960FB6F894DEBF0FBECDBFCF91DF910F
:102CF0000895DF93CF9300D000D0CDB7DEB79C838B
:102D00008B83EB81FC81A281B381EB81FC81848187
:102D1000958115969C938E931497EB81FC81A481E9
:102D2000B581EB81FC818281938113969C938E9374
:102D30001297EB81FC81808591859A838983E98153
:102D4000FA81218132818B819C812817390741F4D6
:102D5000EB81FC8184819581E981FA819283818371
:102D6000EB81FC8111861086E981FA818081815096
:102D7000E981FA8180830F900F900F900F90CF918F
:102D8000DF910895DF93CF93CDB7DEB728970FB6C5
:102D9000F894DEBF0FBECDBF9C838B837E836D8393
:102DA00058874F83EB81FC8181E180838B819C81FB
:102DB00001979C838B83EB81FC8182E280838B81F2
:102DC0009C8101979C838B83EB81FC8183E38083CF
:102DD0008B819C8101979C838B838D819E819A83BB
:102DE00089838981EB81FC8180838B819C81019720
:102DF0009C838B8389819A81892F99279A838983E0
:102E00008981EB81FC8180838B819C8101979C83EC
:102E10008B83EB81FC8110828B819C8101979C8349
:102E20008B83EB81FC8180E880838B819C8101977F
:102E30009C838B83EB81FC8110828B819C81019729
:102E40009C838B83EB81FC8182E080838B819C81DE
:102E500001979C838B83EB81FC8183E080838B8152
:102E60009C8101979C838B83EB81FC8184E0808330
:102E70008B819C8101979C838B83EB81FC8185E016
:102E800080838B819C8101979C838B83EB81FC8168
:102E900086E080838B819C8101979C838B83EB816F
:102EA000FC8187E080838B819C8101979C838B834D
:102EB000EB81FC8188E080838B819C8101979C83DE
:102EC0008B83EB81FC8189E080838B819C810197DE
:102ED0009C838B83EB81FC8180E180838B819C814F
:102EE00001979C838B83EB81FC8181E180838B81C3
:102EF0009C8101979C838B83EB81FC8182E18083A1
:102F00008B819C8101979C838B83EB81FC8183E186
:102F100080838B819C8101979C838B83EB81FC81D7
:102F200084E180838B819C8101979C838B83EB81DF
:102F3000FC8185E180838B819C8101979C838B83BD
:102F4000EB81FC8186E180838B819C8101979C834E
:102F50008B83EB81FC8187E180838B819C8101974E
:102F60009C838B83EB81FC8188E180838B819C81B6
:102F700001979C838B83EB81FC8189E180838B812A
:102F80009C8101979C838B83EB81FC8180E2808311
:102F90008B819C8101979C838B83EB81FC8181E2F7
:102FA00080838B819C8101979C838B83EB81FC8147
:102FB00082E280838B819C8101979C838B83EB8150
:102FC000FC8183E280838B819C8101979C838B832E
:102FD0008F8198859A8389838981EB81FC818083A5
:102FE0008B819C8101979C838B8389819A81892F16
:102FF00099279A8389838981EB81FC8180838B81E6
:103000009C8101979C838B83EB81FC8186E280838A
:103010008B819C8101979C838B83EB81FC8187E270
:1030200080838B819C8101979C838B83EB81FC81C6
:1030300088E280838B819C8101979C838B83EB81C9
:10304000FC8189E280838B819C8101979C838B83A7
:10305000EB81FC8180E380838B819C8101979C8341
:103060008B83EB81FC8181E380838B819C81019741
:103070009C838B838B819C8128960FB6F894DEBF4E
:103080000FBECDBFCF91DF910895DF93CF93CDB722
:10309000DEB70E943519A0919205B0919305CD91AC
:1030A000CDBFDD91DEBFFF91EF91DF91CF91BF9159
:1030B000AF919F918F917F916F915F914F913F91D0
:1030C0002F911F910F91FF90EF90DF90CF90BF90C5
:1030D000AF909F908F907F906F905F904F903F90B8
:1030E0002F901F900F900FBE0F90089581E0CF9109
:1030F000DF910895DF93CF93CDB7DEB7CF91DF9106
:1031000008950F920FB6F8940F921F9211242F92E8
:103110003F924F925F926F927F928F929F92AF9267
:10312000BF92CF92DF92EF92FF920F931F932F9354
:103130003F934F935F936F937F938F939F93AF933F
:10314000BF93CF93DF93EF93FF93A0919205B0913C
:1031500093050DB60D920EB60D920E946F23A091AD
:103160009205B0919305CD91CDBFDD91DEBFFF916A
:10317000EF91DF91CF91BF91AF919F918F917F910F
:103180006F915F914F913F912F911F910F91FF9000
:10319000EF90DF90CF90BF90AF909F908F907F90F7
:1031A0006F905F904F903F902F901F900F900FBEA9
:1031B0000F9008950F920FB6F8940F921F9211245A
:1031C0002F923F924F925F926F927F928F929F9237
:1031D000AF92BF92CF92DF92EF92FF920F931F9325
:1031E0002F933F934F935F936F937F938F939F930F
:1031F000AF93BF93CF93DF93EF93FF93A09192058B
:10320000B09193050DB60D920EB60D920E949A22C2
:103210000E946F23A0919205B0919305CD91CDBFEF
:10322000DD91DEBFFF91EF91DF91CF91BF91AF9123
:103230009F918F917F916F915F914F913F912F91CE
:103240001F910F91FF90EF90DF90CF90BF90AF90C4
:103250009F908F907F906F905F904F903F902F90B6
:103260001F900F900FBE0F900895DF93CF9300D063
:1032700000D000D0CDB7DEB780E89EE3A0E0B0E09C
:103280008B839C83AD83BE838B819C81AD81BE810A
:10329000689415F8B695A795979587951694D1F7E4
:1032A0008B839C83AD83BE838B819C81AD81BE81EA
:1032B0000197A109B1098B839C83AD83BE838B8168
:1032C00089838B819C81AD81BE81892F9A2FAB2F01
:1032D000BB278B839C83AD83BE838B818A83EBE486
:1032E000F0E08A818083EAE4F0E0898180838BE0EA
:1032F0008983EEE4F0E089818083E9E5F0E0808174
:103300008983898180618983E9E5F0E0898180830F
:1033100026960FB6F894DEBF0FBECDBFCF91DF91DA
:1033200008950E94DA181895DF93CF93CDB7DEB7D2
:1033300028970FB6F894DEBF0FBECDBF8F83688786
:103340001A8219828F81882309F48CC08FE190E062
:103350000E941B159E838D838D819E81009709F4A9
:1033600081C08F81282F30E08885882F90E0AC01C4
:10337000249FC001259F900D349F900D112401962C
:103380009C838B838B819C810E941B15ED81FE8128
:1033900091838083ED81FE8180819181009709F482
:1033A0005DC0ED81FE81408151818F81282F30E009
:1033B0008885882F90E0BC01269FC001279F900D33
:1033C000369F900D1124840F951FED81FE8193830C
:1033D0008283ED81FE81128EED81FE81808191815B
:1033E000ED81FE8195838483ED81FE814081518151
:1033F0008F81882F90E09C01215030408885882F54
:1034000090E0BC01269FC001279F900D369F900D34
:103410001124840F951FED81FE8197838683ED81B2
:10342000FE818F81838FED81FE818885848FED8180
:10343000FE818FEF858FED81FE818FEF868F8D81ED
:103440009E8108960E9487158D819E8141960E94DB
:1034500087158D819E819A83898304C08D819E8189
:103460000E94611589819A8128960FB6F894DEBF73
:103470000FBECDBFCF91DF910895DF93CF9300D0E2
:1034800000D0CDB7DEB78B836C838B8160E00E9468
:1034900094199A83898389819A81009721F0E9811F
:1034A000FA818C81828F89819A810F900F900F9081
:1034B0000F90CF91DF910895DF93CF93CDB7DEB713
:1034C0002C970FB6F894DEBF0FBECDBF9E838D83C1
:1034D00078876F835A8749872B8719820FB6F894AC
:1034E0000F92ED81FE81928DED81FE81838D981783
:1034F000D8F48D819E812F813885B9014B850E943A
:10350000971CED81FE818189882349F08D819E8100
:1035100041960E941E24813011F40E9481180F9060
:103520000FBE81E08C875CC089859A85009721F465
:103530000F900FBE1C8654C08981882331F4CE01C0
:1035400002960E94862481E089830F900FBE0E941C
:10355000CF210FB6F8940F92ED81FE81858D8F3FBC
:1035600019F4ED81FE81158EED81FE81868D8F3FF0
:1035700019F4ED81FE81168E0F900FBECE010296DA
:103580009E01275F3F4FB9010E949F24882309F5C0
:103590008D819E810E94FB1D8823A1F08D819E81DB
:1035A000089629853A85B9010E94D5238D819E818F
:1035B0000E94741D0E94DB21882309F08FCF0E9496
:1035C00081188CCF8D819E810E94741D0E94DB2109
:1035D00085CF8D819E810E94741D0E94DB211C86F7
:1035E0008C852C960FB6F894DEBF0FBECDBFCF9161
:1035F000DF910895DF93CF93CDB7DEB729970FB64C
:10360000F894DEBF0FBECDBF9C838B837E836D831A
:1036100058874F8329871982EB81FC81928DEB813A
:10362000FC81838D981740F58B819C812D813E8193
:10363000B90149850E94971CEB81FC81868D8F3FE3
:1036400089F4EB81FC818189882399F08B819C81AD
:1036500041960E941E24882361F0EF81F88581E065
:10366000808307C0EB81FC81868D8F5FEB81FC81BD
:10367000868F81E08A8301C01A828A8129960FB6DB
:10368000F894DEBF0FBECDBFCF91DF910895DF93D9
:10369000CF93CDB7DEB72E970FB6F894DEBF0FBE2F
:1036A000CDBF98878F837A8769875C874B872D8703
:1036B0001B820FB6F8940F92EF81F885828D8823D4
:1036C00009F43FC0EF81F885868197819A838983C9
:1036D0008F81988529853A85B9010E942C1D8D8599
:1036E0008823B1F4EF81F885828D8150EF81F885D0
:1036F000828FEF81F88580858823F1F08F8198850E
:1037000008960E941E248130B9F40E94811814C0CA
:10371000EF81F88589819A8197838683EF81F88587
:103720008189882349F08F81988541960E941E24C3
:10373000882311F00E9481180F900FBE81E08E87C0
:103740005CC08B859C85009721F40F900FBE1E8670
:1037500054C08B81882331F4CE0104960E948624C4
:1037600081E08B830F900FBE0E94CF210FB6F8949B
:103770000F92EF81F885858D8F3F19F4EF81F885E1
:10378000158EEF81F885868D8F3F19F4EF81F885CE
:10379000168E0F900FBECE0104969E01255F3F4FFF
:1037A000B9010E949F24882309F58F8198850E9482
:1037B000C81D8823A1F08F81988541962B853C8573
:1037C000B9010E94D5238F8198850E94741D0E94A3
:1037D000DB21882309F06DCF0E9481186ACF8F8189
:1037E00098850E94741D0E94DB2163CF8F8198858C
:1037F0000E94741D0E94DB211E868E852E960FB6B8
:10380000F894DEBF0FBECDBFCF91DF910895DF9357
:10381000CF93CDB7DEB728970FB6F894DEBF0FBEB3
:10382000CDBF9C838B837E836D8358874F831982A2
:10383000EB81FC81828D882371F18B819C812D81AC
:103840003E81B9010E942C1DEB81FC81828D81504B
:10385000EB81FC81828FEB81FC81858D8F3F89F428
:10386000EB81FC818085882399F08B819C8108966F
:103870000E941E24882361F0EF81F88581E0808317
:1038800007C0EB81FC81858D8F5FEB81FC81858F8B
:1038900081E08A8301C01A828A8128960FB6F89443
:1038A000DEBF0FBECDBFCF91DF910895DF93CF93E1
:1038B00000D00F92CDB7DEB79B838A830FB6F89402
:1038C0000F92EA81FB81828D89830F900FBE8981DF
:1038D0000F900F900F90CF91DF910895DF93CF93CA
:1038E00000D00F92CDB7DEB79B838A83EA81FB813C
:1038F000828D898389810F900F900F90CF91DF91F6
:103900000895DF93CF9300D0CDB7DEB79A83898334
:10391000E981FA81808191810E94611589819A8172
:103920000E9461150F900F90CF91DF910895DF9362
:10393000CF9300D000D00F92CDB7DEB79A838983A2
:103940007C836B834D83E981FA81848D882309F41C
:1039500074C08D81882399F5E981FA81648175812C
:10396000E981FA81848D482F50E02B813C81CB0185
:10397000B9010E94CD27E981FA8124813581E9814D
:10398000FA81848D882F90E0820F931FE981FA815C
:1039900095838483E981FA8124813581E981FA81E3
:1039A000828193812817390708F447C0E981FA8199
:1039B00080819181E981FA81958384833EC0E98188
:1039C000FA8166817781E981FA81848D482F50E000
:1039D0002B813C81CB01B9010E94CD27E981FA817D
:1039E00026813781E981FA81848D882F90E0909536
:1039F00081959F4F820F931FE981FA819783868378
:103A0000E981FA8126813781E981FA81808191817A
:103A10002817390790F4E981FA8122813381E981FD
:103A2000FA81848D882F90E0909581959F4F820F29
:103A3000931FE981FA8197838683E981FA81828DD8
:103A40008F5FE981FA81828F0F900F900F900F9016
:103A50000F90CF91DF910895DF93CF9300D000D0E6
:103A6000CDB7DEB79A8389837C836B83E981FA8142
:103A700080819181009789F1E981FA8126813781DE
:103A8000E981FA81848D882F90E0820F931FE9816C
:103A9000FA8197838683E981FA8126813781E981DA
:103AA000FA81828193812817390740F0E981FA81F0
:103AB00080819181E981FA8197838683E981FA8106
:103AC00046815781E981FA81848D282F30E08B81EE
:103AD0009C81BA01A9010E94CD270F900F900F90F1
:103AE0000F90CF91DF910895DF93CF9300D0CDB7A2
:103AF000DEB79A8389830FB6F8940F9215C0E981D7
:103B0000FA8181898823A9F089819A8141960E944E
:103B10001E24882311F00E940625E981FA81868DF2
:103B20008150E981FA81868FE981FA81868D1816A4
:103B300034F3E981FA818FEF868F0F900FBE0FB6B5
:103B4000F8940F9215C0E981FA8180858823A9F045
:103B500089819A8108960E941E24882311F00E9470
:103B60000625E981FA81858D8150E981FA81858F69
:103B7000E981FA81858D181634F3E981FA818FEF96
:103B8000858F0F900FBE0F900F90CF91DF9108950A
:103B9000DF93CF9300D00F92CDB7DEB79B838A839C
:103BA0000FB6F8940F92EA81FB81828D19828823E7
:103BB00011F481E089830F900FBE89810F900F90DF
:103BC0000F90CF91DF910895DF93CF9300D00F92A4
:103BD000CDB7DEB79B838A83EA81FB81828D198210
:103BE000882311F481E0898389810F900F900F90D1
:103BF000CF91DF910895DF93CF9300D00F92CDB78F
:103C0000DEB79B838A830FB6F8940F92EA81FB811B
:103C1000928DEA81FB81838D1982981711F481E0DE
:103C200089830F900FBE89810F900F900F90CF91D5
:103C3000DF910895DF93CF9300D00F92CDB7DEB719
:103C40009B838A83EA81FB81928DEA81FB81838D4C
:103C50001982981711F481E0898389810F900F9060
:103C60000F90CF91DF910895AF92BF92CF92DF92E4
:103C7000EF92FF920F931F93DF93CF93CDB7DEB7F1
:103C800064970FB6F894DEBF0FBECDBF9F838E83BF
:103C9000798768875B874A873D872C870E87F88AF4
:103CA000EF86DA8AC98ABC8AAB8A8A859B8529898C
:103CB0003A89B9010E9439269C838B838B819C8130
:103CC000009709F499C0EB81FC812789308D8A85A2
:103CD0009B850197820F931F9A8389838B819C8197
:103CE00028853985EB89FC89AA85BB85B9014E8574
:103CF0009F018D010E941A2589819A812E813F8121
:103D00004C855D85B9010E94C216EB81FC819183CF
:103D100080838F859889009731F0EF85F8898B81B2
:103D20009C81918380830FB6F8940F9280919505C2
:103D30008F5F8093950580919205909193050097F0
:103D400069F48B819C819093930580939205809177
:103D500095058130A9F40E94712512C080919A05C1
:103D6000882371F4E0919205F091930596898E85F0
:103D7000891730F08B819C819093930580939205F5
:103D8000EB81FC81968980919805891728F4EB8155
:103D9000FC8186898093980580919F058F5F809331
:103DA0009F05EB81FC81968980919905891728F4FC
:103DB000EB81FC81868980939905EB81FC81868962
:103DC000282F30E0C901880F991F880F991F880F8D
:103DD000991F820F931FAC0140565A4F8B819C81D3
:103DE0009C012E5F3F4FCA01B9010E94C11581E0BD
:103DF0008D830F900FBE02C08FEF8D838D81813038
:103E000071F480919A05882351F0E0919205F09128
:103E1000930596898E85981710F40E9481188D81DC
:103E200064960FB6F894DEBF0FBECDBFCF91DF9181
:103E30001F910F91FF90EF90DF90CF90BF90AF90C8
:103E40000895DF93CF9300D000D000D0CDB7DEB778
:103E50009C838B830FB6F8940F922091920530913A
:103E600093058B819C818217930711F41C821B821E
:103E70008B819C81009739F48091920590919305F4
:103E80009E838D8304C08B819C819E838D838D81D5
:103E90009E819A83898389819A8102960E947916EC
:103EA000E981FA8184899589009729F089819A812D
:103EB0000C960E94791689819A819C012E5F3F4F52
:103EC00085EF95E0B9010E94C115809194058F5F3F
:103ED0008093940580919F058F5F80939F050F903D
:103EE0000FBE80919A05882331F08B819C810097C9
:103EF00011F40E94811826960FB6F894DEBF0FBE0B
:103F0000CDBFCF91DF910895DF93CF93CDB7DEB7CB
:103F100028970FB6F894DEBF0FBECDBF9E838D836A
:103F200078876F8319820E94CF21ED81FE812081E5
:103F300031818F819885820F931F9C838B83ED81C4
:103F4000FE8120813181809196059091970582179D
:103F50009307A8F4ED81FE81208131818B819C81C2
:103F60008217930700F520919605309197058B8174
:103F70009C8128173907B8F481E0898314C0ED814A
:103F8000FE81208131818B819C818217930748F0CB
:103F900020919605309197058B819C8128173907D0
:103FA00010F481E08983ED81FE818B819C81918376
:103FB00080838981882359F080919205909193059F
:103FC00002960E9479168B819C810E94F0250E94A6
:103FD000DB218A838A81882311F40E948118289624
:103FE0000FB6F894DEBF0FBECDBFCF91DF9108951D
:103FF000DF93CF9300D000D00F92CDB7DEB79D8373
:104000008C8319828C819D810097D1F00E94CF21F1
:1040100020919605309197058C819D81820F931F89
:104020009B838A83809192059091930502960E94CA
:1040300079168A819B810E94F0250E94DB21898369
:104040008981882311F40E9481180F900F900F909E
:104050000F900F90CF91DF910895DF93CF9300D011
:1040600000D000D0CDB7DEB79C838B830FB6F89419
:104070000F9220919205309193058B819C8182173C
:10408000930711F41C821B828B819C81009739F469
:1040900080919205909193059E838D8304C08B81BE
:1040A0009C819E838D838D819E819A838983898162
:1040B0009A8102960E947916E981FA81848995890C
:1040C000009729F089819A810C960E94791689813E
:1040D0009A819C012E5F3F4F8EEF95E0B9010E94BF
:1040E000C1150F900FBE8B819C810097A1F4809128
:1040F0009A05882319F00E9481180DC09091FE0541
:1041000080919505981729F41092930510929205C5
:1041100002C00E946F2326960FB6F894DEBF0FBE32
:10412000CDBFCF91DF910895DF93CF9300D000D022
:104130000F92CDB7DEB79D838C831B828C819D81CE
:104140009A838983E981FA818285938525E08E3F70
:10415000920781F4E981FA818489958925E08C3E72
:10416000920741F0E981FA8184899589009711F4D9
:1041700081E08B838B810F900F900F900F900F90A9
:10418000CF91DF910895DF93CF9300D000D0CDB7CA
:10419000DEB79C838B838B819C819A838983898101
:1041A0009A81009709F44CC02091920530919305B3
:1041B00089819A818217930709F442C00FB6F89457
:1041C0000F9289819A810E9494208130B9F589816A
:1041D0009A8102960E947916E981FA8196898091E6
:1041E0009905891728F4E981FA81868980939905D0
:1041F000E981FA818689282F30E0C901880F991F4B
:10420000880F991F880F991F820F931FAC0140568A
:104210005A4F89819A819C012E5F3F4FCA01B90193
:104220000E94C115E981FA819689E0919205F09189
:1042300093058689981710F00E9481180F900FBE81
:104240000F900F900F900F90CF91DF910895DF9313
:10425000CF9300D000D00F92CDB7DEB79D838C8373
:104260001B828C819D819A83898389819A810E9496
:104270009420813009F047C080919B058823C9F5BF
:10428000E981FA819689E0919205F09193058689FA
:104290001B82981710F081E08B8389819A810296A6
:1042A0000E947916E981FA8196898091990589178A
:1042B00028F4E981FA81868980939905E981FA8158
:1042C0008689282F30E0C901880F991F880F991F10
:1042D000880F991F820F931FAC0140565A4F898156
:1042E0009A819C012E5F3F4FCA01B9010E94C115FE
:1042F0000AC089819A819C01245F3F4F8CEE95E032
:10430000B9010E94C1158B810F900F900F900F90F3
:104310000F90CF91DF910895AF92BF92CF92DF922D
:10432000EF92FF920F93DF93CF930F92CDB7DEB74B
:1043300020E630E080E195E2B9014AEF50E020E06C
:1043400030E000E0EE24FF24CC24DD24AA24BB24AA
:104350000E94341E89838981813051F4F89481E070
:1043600080939A0510929705109296050E94451821
:104370000F90CF91DF910F91FF90EF90DF90CF9052
:10438000BF90AF900895DF93CF93CDB7DEB7F89489
:1043900010929A050E947A18CF91DF910895DF93C9
:1043A000CF93CDB7DEB780919B058F5F80939B0540
:1043B000CF91DF910895DF93CF9300D000D0CDB798
:1043C000DEB71A820FB6F8940F9280919B05815048
:1043D00080939B0580919B05882309F06CC0809198
:1043E0009505882309F467C0198241C0E091F10561
:1043F000F091F205868197819C838B838B819C81D0
:104400000C960E9479168B819C8102960E947916E7
:10441000EB81FC81968980919905891728F4EB81BD
:10442000FC81868980939905EB81FC818689282F00
:1044300030E0C901880F991F880F991F880F991FB5
:10444000820F931F80569A4F2B813C812E5F3F4FE6
:10445000B9010E94C115EB81FC819689E09192051A
:10446000F09193058689981710F081E089838091F7
:10447000EC05882309F0BACF80919C05882371F060
:1044800007C00E949A2280919C05815080939C05D0
:1044900080919C058823A9F781E0898389818130F7
:1044A00021F080919D05813031F481E08A83109262
:1044B0009D050E9481180F900FBE8A810F900F906A
:1044C0000F900F90CF91DF910895DF93CF9300D09D
:1044D000CDB7DEB70FB6F8940F9280919605909104
:1044E00097059A8389830F900FBE89819A810F90D7
:1044F0000F90CF91DF910895DF93CF9300D00F926B
:10450000CDB7DEB7198280919605909197059B8370
:104510008A838A819B810F900F900F90CF91DF91BA
:104520000895DF93CF93CDB7DEB780919505CF91F6
:10453000DF910895DF93CF9300D000D000D0CDB7A6
:10454000DEB780919B05882309F0BBC0809196055A
:104550009091970501969093970580939605809189
:104560009605909197050097D1F58091E805909177
:10457000E9059C838B838091EA059091EB059093EC
:10458000E9058093E8058B819C819093EB058093EE
:10459000EA0580919E058F5F80939E05E091E80576
:1045A000F091E9058081882339F48FEF9FEF909394
:1045B000A3008093A20013C0E091E805F091E90503
:1045C0000580F681E02D868197819E838D83ED8124
:1045D000FE81828193819093A3008093A200209119
:1045E0009605309197058091A2009091A30028171D
:1045F000390708F46BC0E091E805F091E905808186
:10460000882339F48FEF9FEF9093A3008093A2004B
:104610005DC0E091E805F091E9050580F681E02DA7
:10462000868197819E838D83ED81FE818281938136
:104630009A838983209196053091970589819A8183
:104640002817390738F489819A819093A3008093C1
:10465000A2003CC08D819E8102960E947916ED8158
:10466000FE8184899589009729F08D819E810C9621
:104670000E947916ED81FE819689809199058917AE
:1046800028F4ED81FE81868980939905ED81FE8174
:104690008689282F30E0C901880F991F880F991F3C
:1046A000880F991F820F931FAC0140565A4F8D817E
:1046B0009E819C012E5F3F4FCA01B9010E94C11526
:1046C0009ACF80919C058F5F80939C0526960FB6AC
:1046D000F894DEBF0FBECDBFCF91DF910895DF9379
:1046E000CF9300D0CDB7DEB780919B05882349F0EA
:1046F00081E080939D0554C08091990581508093FD
:10470000990580919905282F30E0C901880F991FDC
:10471000880F991F880F991F820F931FFC01E05685
:10472000FA4F8081882341F380919905282F30E04A
:10473000C901880F991F880F991F880F991F820F31
:10474000931F80569A4F9A838983E981FA81018069
:10475000F281E02D82819381E981FA8192838183C4
:10476000E981FA812181328189819A810396281712
:10477000390759F4E981FA810180F281E02D8281C3
:104780009381E981FA8192838183E981FA810180B1
:10479000F281E02D86819781909393058093920515
:1047A0000F900F90CF91DF910895DF93CF9300D0BA
:1047B00000D000D0CDB7DEB79C838B837E836D8322
:1047C0004B815C8180919205909193059C01245FBF
:1047D0003F4FCA01B9010E940D1680919205909138
:1047E000930502960E9479168D819E812FEF8F3F4F
:1047F000920769F480919205909193059C012E5F38
:104800003F4F8EEF95E0B9010E94C1150EC0209177
:104810009605309197058D819E81820F931F9A8313
:10482000898389819A810E94F02526960FB6F89493
:10483000DEBF0FBECDBFCF91DF910895DF93CF9341
:1048400000D000D00F92CDB7DEB79D838C83EC8172
:10485000FD810580F681E02D868197819B838A8387
:104860008A819B810C960E94791680919B058823F2
:1048700061F58A819B8102960E947916EA81FB810B
:10488000968980919905891728F4EA81FB818689A8
:1048900080939905EA81FB818689282F30E0C90140
:1048A000880F991F880F991F880F991F820F931FD8
:1048B000AC0140565A4F8A819B819C012E5F3F4F2D
:1048C000CA01B9010E94C1150AC08A819B819C015D
:1048D000245F3F4F8CEE95E0B9010E94C115EA813B
:1048E000FB819689E0919205F0919305868998174E
:1048F00018F081E0898301C0198289810F900F909F
:104900000F900F900F90CF91DF910895DF93CF9389
:1049100000D0CDB7DEB79A83898380919E05E98167
:10492000FA8180838091960590919705E981FA81BB
:10493000928381830F900F90CF91DF910895DF9341
:10494000CF9300D000D00F92CDB7DEB79B838A8380
:104950007D836C830FB6F8940F92EC81FD8180818A
:1049600091812FEF8F3F920711F4198244C0EA81A1
:10497000FB81908180919E05981771F0EA81FB81FF
:104980002181328180919605909197058217930736
:1049900018F081E089832FC020919605309197050A
:1049A000EA81FB8181819281281B390BEC81FD8199
:1049B0008081918128173907E0F4EC81FD814081E5
:1049C0005181EA81FB81218132818091960590910C
:1049D0009705B901681B790BCB01840F951FEC81FA
:1049E000FD81918380838A819B810E948624198224
:1049F00002C081E089830F900FBE89810F900F90D4
:104A00000F900F900F90CF91DF910895DF93CF9388
:104A1000CDB7DEB781E080939D05CF91DF910895FA
:104A2000DF93CF9300D0CDB7DEB79A8389830E94FE
:104A3000B225FDCF0F931F93DF93CF93CDB7DEB792
:104A400029970FB6F894DEBF0FBECDBF9A83898336
:104A50007C836B834D833F832E83198708878981ED
:104A60009A8149962B813C81B90148E050E00E942F
:104A7000DD27E981FA8110A28D81863010F085E072
:104A80008D83E981FA818D81868B89819A81029655
:104A90000E94B11589819A810C960E94B115E98115
:104AA000FA8189819A81918780878D81282F30E0D2
:104AB00086E090E0821B930BE981FA8195878487D9
:104AC000E981FA8189819A81938B828B29960FB62D
:104AD000F894DEBF0FBECDBFCF91DF911F910F9134
:104AE0000895DF93CF930F92CDB7DEB7198213C02D
:104AF0008981282F30E0C901880F991F880F991FDD
:104B0000880F991F820F931F80569A4F0E94871516
:104B100089818F5F89838981863050F386ED95E0A6
:104B20000E9487158FED95E00E9487158CEE95E029
:104B30000E94871585EF95E00E9487158EEF95E01E
:104B40000E94871586ED95E09093E9058093E8052E
:104B50008FED95E09093EB058093EA050F90CF9150
:104B6000DF910895DF93CF9300D00F92CDB7DEB7DA
:104B700080919405882371F10E94CF218091F505E1
:104B80001B82882311F481E08B830E94DB218B81BF
:104B9000882301F50FB6F8940F92E091FA05F09191
:104BA000FB05868197819A83898389819A81029600
:104BB0000E9479168091950581508093950580918A
:104BC00094058150809394050F900FBE89819A813E
:104BD0000E9489260F900F900F90CF91DF9108953A
:104BE000DF93CF9300D0CDB7DEB79A838983E0916E
:104BF0009205F091930589819A8193838283209114
:104C000096053091970589819A818217930770F4F0
:104C10008091EA059091EB052091920530919305E2
:104C20002E5F3F4FB9010E940D161EC04091E8054E
:104C30005091E90580919205909193059C012E5F1A
:104C40003F4FCA01B9010E940D162091A200309178
:104C5000A30089819A818217930730F489819A8110
:104C60009093A3008093A2000F900F90CF91DF91BB
:104C70000895DF93CF93CDB7DEB728970FB6F8949A
:104C8000DEBF0FBECDBF9C838B837E836D8381E2AD
:104C900090E00E941B159A83898389819A810097ED
:104CA00069F18D819E81009739F48B819C810E94EE
:104CB0001B1598878F8304C08D819E8198878F8371
:104CC000E981FA818F819885908F878BE981FA81BC
:104CD0008789908D009739F489819A810E946115A6
:104CE0001A8219820BC0E981FA818789908D2B8104
:104CF0003C8165EA70E0A9010E94D62789819A81EA
:104D000028960FB6F894DEBF0FBECDBFCF91DF91CE
:104D10000895DF93CF9300D0CDB7DEB79A83898310
:104D2000E981FA818789908D0E94611589819A8134
:104D30000E9461150F900F90CF91DF910895AF926F
:104D4000BF92CF92DF92EF92FF920F93DF93CF93B8
:104D5000CDB7DEB780E064E041E00E942A0880E041
:104D600064E040E00E942A0980E060E040E00E94A8
:104D70002A0880E060E041E00E942A0980E066E0C5
:104D800041E00E942A0880E066E040E00E942A0993
:104D900080E067E040E00E942A0880E067E041E0B0
:104DA0000E942A0982E067E041E00E942A0882E02E
:104DB00067E040E00E942A0982E066E041E00E944C
:104DC0002A0882E066E040E00E942A090E940E085C
:104DD0000E94A90E0E94A20B80E895E20E943D0766
:104DE00087E196E025E630E0B90144E650E020E0B6
:104DF00030E002E0EE24FF24CC24DD24AA24BB24EE
:104E00000E94341E8DE396E02DE630E0B90144E6C1
:104E100050E020E030E002E0EE24FF24CC24DD244A
:104E2000AA24BB240E94341E87ED96E025E730E0DB
:104E3000B90144E650E020E030E004E0EE24FF2435
:104E4000CC24DD24AA24BB240E94341E8AE097E0EF
:104E50002BE730E0B90144E650E020E030E003E029
:104E6000EE24FF24CC24DD24AA24BB240E94341E7B
:104E700081E060E00E94941990930E0680930D06E5
:104E800080910D0690910E06009759F080910D06C5
:104E900090910E0660E070E040E050E020E00E945B
:104EA0005C1A82E890E00E94601181E060E00E945C
:104EB000A3118CE890E00E9460110E948C21FFCF2A
:104EC000AA1BBB1B51E107C0AA1FBB1FA617B70730
:104ED00010F0A61BB70B881F991F5A95A9F780954C
:104EE0009095BC01CD010895A1E21A2EAA1BBB1B0F
:104EF000FD010DC0AA1FBB1FEE1FFF1FA217B307A6
:104F0000E407F50720F0A21BB30BE40BF50B661FBB
:104F1000771F881F991F1A9469F76095709580957F
:104F200090959B01AC01BD01CF0108952F923F9256
:104F30004F925F926F927F928F929F92AF92BF92A9
:104F4000CF92DF92EF92FF920F931F93CF93DF9355
:104F5000CDB7DEB7CA1BDB0B0FB6F894DEBF0FBEB2
:104F6000CDBF09942A88398848885F846E847D84FF
:104F70008C849B84AA84B984C884DF80EE80FD8001
:104F80000C811B81AA81B981CE0FD11D0FB6F89477
:104F9000DEBF0FBECDBFED010895FB01DC0102C0F5
:104FA00001900D9241505040D8F70895DC0101C0A6
:104FB0006D9341505040E0F70895FB01DC014150F2
:104FC000504048F001900D920020C9F701C01D9299
:0C4FD00041505040E0F70895F894FFCFE6
:104FDC0049444C450053656E736F72310053656ED6
:104FEC00736F7232004D6F746F720042757A7A650E
:104FFC00720048756D69646974793A00576174651B
:10500C0072204C6576656C3A2000000000000000B0
:04501C000000FFFF92
:00000001FF
